{
  "address": "0xDc64a140Aa3E981100a9becA4E685f962f0cF6C9",
  "abi": [
    {
      "inputs": [],
      "stateMutability": "nonpayable",
      "type": "constructor"
    },
    {
      "inputs": [],
      "name": "InvalidCollateral",
      "type": "error"
    },
    {
      "inputs": [],
      "name": "InvalidState",
      "type": "error"
    },
    {
      "inputs": [],
      "name": "OnlyBuyer",
      "type": "error"
    },
    {
      "inputs": [],
      "name": "OnlySeller",
      "type": "error"
    },
    {
      "anonymous": false,
      "inputs": [],
      "name": "Paid",
      "type": "event"
    },
    {
      "anonymous": false,
      "inputs": [],
      "name": "Payout",
      "type": "event"
    },
    {
      "anonymous": false,
      "inputs": [],
      "name": "Priced",
      "type": "event"
    },
    {
      "anonymous": false,
      "inputs": [],
      "name": "Refunded",
      "type": "event"
    },
    {
      "anonymous": false,
      "inputs": [],
      "name": "Settled",
      "type": "event"
    },
    {
      "inputs": [],
      "name": "buyer",
      "outputs": [
        {
          "internalType": "address payable",
          "name": "",
          "type": "address"
        }
      ],
      "stateMutability": "view",
      "type": "function"
    },
    {
      "inputs": [],
      "name": "collateralFactor",
      "outputs": [
        {
          "internalType": "uint256",
          "name": "",
          "type": "uint256"
        }
      ],
      "stateMutability": "view",
      "type": "function"
    },
    {
      "inputs": [],
      "name": "confirmReceived",
      "outputs": [],
      "stateMutability": "nonpayable",
      "type": "function"
    },
    {
      "inputs": [],
      "name": "pay",
      "outputs": [],
      "stateMutability": "payable",
      "type": "function"
    },
    {
      "inputs": [],
      "name": "payout",
      "outputs": [],
      "stateMutability": "nonpayable",
      "type": "function"
    },
    {
      "inputs": [],
      "name": "price",
      "outputs": [
        {
          "internalType": "uint256",
          "name": "",
          "type": "uint256"
        }
      ],
      "stateMutability": "view",
      "type": "function"
    },
    {
      "inputs": [],
      "name": "refund",
      "outputs": [],
      "stateMutability": "nonpayable",
      "type": "function"
    },
    {
      "inputs": [],
      "name": "seller",
      "outputs": [
        {
          "internalType": "address payable",
          "name": "",
          "type": "address"
        }
      ],
      "stateMutability": "view",
      "type": "function"
    },
    {
      "inputs": [
        {
          "internalType": "uint256",
          "name": "_price",
          "type": "uint256"
        }
      ],
      "name": "setPrice",
      "outputs": [],
      "stateMutability": "payable",
      "type": "function"
    },
    {
      "inputs": [],
      "name": "state",
      "outputs": [
        {
          "internalType": "enum Escrow.State",
          "name": "",
          "type": "uint8"
        }
      ],
      "stateMutability": "view",
      "type": "function"
    }
  ],
  "transactionHash": "0x345e497ec2ed4298d6f76f73907b5be6c1c3cbcfa596acccab54601a3d98b6c0",
  "args": [],
  "solcInputHash": "b6ab36623068addd00c4db9d46e523e9",
  "bytecode": "0x608060405234801561001057600080fd5b5033600160006101000a81548173ffffffffffffffffffffffffffffffffffffffff021916908373ffffffffffffffffffffffffffffffffffffffff160217905550610d7b806100616000396000f3fe6080604052600436106100915760003560e01c806373fac6f01161005957806373fac6f01461012457806391b7f5ed1461013b578063a035b1fe14610157578063c19d93fb14610182578063df011c41146101ad57610091565b806308551a53146100965780631b9265b8146100c1578063590e1ae3146100cb57806363bd1d4a146100e25780637150d8ae146100f9575b600080fd5b3480156100a257600080fd5b506100ab6101d8565b6040516100b89190610b49565b60405180910390f35b6100c96101fe565b005b3480156100d757600080fd5b506100e061034f565b005b3480156100ee57600080fd5b506100f761055d565b005b34801561010557600080fd5b5061010e610754565b60405161011b9190610b49565b60405180910390f35b34801561013057600080fd5b5061013961077a565b005b61015560048036038101906101509190610b9f565b61094c565b005b34801561016357600080fd5b5061016c610aea565b6040516101799190610bdb565b60405180910390f35b34801561018e57600080fd5b50610197610af0565b6040516101a49190610c6d565b60405180910390f35b3480156101b957600080fd5b506101c2610b03565b6040516101cf9190610bdb565b60405180910390f35b600160009054906101000a900473ffffffffffffffffffffffffffffffffffffffff1681565b600180600381111561021357610212610bf6565b5b600260149054906101000a900460ff16600381111561023557610234610bf6565b5b1461026c576040517fbaf3f0f700000000000000000000000000000000000000000000000000000000815260040160405180910390fd5b6000543460028261027d9190610cb7565b146102b4576040517fd1ef4cea00000000000000000000000000000000000000000000000000000000815260040160405180910390fd5b7f34ec5380860d4fd12cd95d4d2f001afc87d48bfc50847bec134b0c315c8e2d7760405160405180910390a133600260006101000a81548173ffffffffffffffffffffffffffffffffffffffff021916908373ffffffffffffffffffffffffffffffffffffffff16021790555060028060146101000a81548160ff0219169083600381111561034657610345610bf6565b5b02179055505050565b600160009054906101000a900473ffffffffffffffffffffffffffffffffffffffff1673ffffffffffffffffffffffffffffffffffffffff163373ffffffffffffffffffffffffffffffffffffffff16146103d6576040517f85d1f72600000000000000000000000000000000000000000000000000000000815260040160405180910390fd5b60028060038111156103eb576103ea610bf6565b5b600260149054906101000a900460ff16600381111561040d5761040c610bf6565b5b14610444576040517fbaf3f0f700000000000000000000000000000000000000000000000000000000815260040160405180910390fd5b7f8616bbbbad963e4e65b1366f1d75dfb63f9e9704bbbf91fb01bec70849906cf760405160405180910390a16001600260146101000a81548160ff0219169083600381111561049657610495610bf6565b5b02179055506000600260009054906101000a900473ffffffffffffffffffffffffffffffffffffffff1690506000600260006101000a81548173ffffffffffffffffffffffffffffffffffffffff021916908373ffffffffffffffffffffffffffffffffffffffff1602179055508073ffffffffffffffffffffffffffffffffffffffff166108fc600260005461052d9190610cb7565b9081150290604051600060405180830381858888f19350505050158015610558573d6000803e3d6000fd5b505050565b600160009054906101000a900473ffffffffffffffffffffffffffffffffffffffff1673ffffffffffffffffffffffffffffffffffffffff163373ffffffffffffffffffffffffffffffffffffffff16146105e4576040517f85d1f72600000000000000000000000000000000000000000000000000000000815260040160405180910390fd5b600160038111156105f8576105f7610bf6565b5b600260149054906101000a900460ff16600381111561061a57610619610bf6565b5b1415801561065b575060038081111561063657610635610bf6565b5b600260149054906101000a900460ff16600381111561065857610657610bf6565b5b14155b15610692576040517fbaf3f0f700000000000000000000000000000000000000000000000000000000815260040160405180910390fd5b7f354d7e40465161205ea9dee6ebfe67aee9bc460c83cd2397a35e68c5f6ef5e5160405160405180910390a16000600260146101000a81548160ff021916908360038111156106e4576106e3610bf6565b5b0217905550600160009054906101000a900473ffffffffffffffffffffffffffffffffffffffff1673ffffffffffffffffffffffffffffffffffffffff166108fc479081150290604051600060405180830381858888f19350505050158015610751573d6000803e3d6000fd5b50565b600260009054906101000a900473ffffffffffffffffffffffffffffffffffffffff1681565b600260009054906101000a900473ffffffffffffffffffffffffffffffffffffffff1673ffffffffffffffffffffffffffffffffffffffff163373ffffffffffffffffffffffffffffffffffffffff1614610801576040517f86efbb5500000000000000000000000000000000000000000000000000000000815260040160405180910390fd5b600280600381111561081657610815610bf6565b5b600260149054906101000a900460ff16600381111561083857610837610bf6565b5b1461086f576040517fbaf3f0f700000000000000000000000000000000000000000000000000000000815260040160405180910390fd5b7f97088ec3606cfe8cc112180570d03fcde05f9b8e1bfef8e27784eaf5dd5691b660405160405180910390a16003600260146101000a81548160ff021916908360038111156108c1576108c0610bf6565b5b0217905550600260009054906101000a900473ffffffffffffffffffffffffffffffffffffffff1673ffffffffffffffffffffffffffffffffffffffff166108fc600160026109109190610d11565b60005461091d9190610cb7565b9081150290604051600060405180830381858888f19350505050158015610948573d6000803e3d6000fd5b5050565b600160009054906101000a900473ffffffffffffffffffffffffffffffffffffffff1673ffffffffffffffffffffffffffffffffffffffff163373ffffffffffffffffffffffffffffffffffffffff16146109d3576040517f85d1f72600000000000000000000000000000000000000000000000000000000815260040160405180910390fd5b60008060038111156109e8576109e7610bf6565b5b600260149054906101000a900460ff166003811115610a0a57610a09610bf6565b5b14610a41576040517fbaf3f0f700000000000000000000000000000000000000000000000000000000815260040160405180910390fd5b8134600282610a509190610cb7565b14610a87576040517fd1ef4cea00000000000000000000000000000000000000000000000000000000815260040160405180910390fd5b7ffae94631bbbb61deb5ba54699a4a28e5dd0b6afbf583d7b8cefbd3da7784b5c560405160405180910390a1826000819055506001600260146101000a81548160ff02191690836003811115610ae057610adf610bf6565b5b0217905550505050565b60005481565b600260149054906101000a900460ff1681565b600281565b600073ffffffffffffffffffffffffffffffffffffffff82169050919050565b6000610b3382610b08565b9050919050565b610b4381610b28565b82525050565b6000602082019050610b5e6000830184610b3a565b92915050565b600080fd5b6000819050919050565b610b7c81610b69565b8114610b8757600080fd5b50565b600081359050610b9981610b73565b92915050565b600060208284031215610bb557610bb4610b64565b5b6000610bc384828501610b8a565b91505092915050565b610bd581610b69565b82525050565b6000602082019050610bf06000830184610bcc565b92915050565b7f4e487b7100000000000000000000000000000000000000000000000000000000600052602160045260246000fd5b60048110610c3657610c35610bf6565b5b50565b6000819050610c4782610c25565b919050565b6000610c5782610c39565b9050919050565b610c6781610c4c565b82525050565b6000602082019050610c826000830184610c5e565b92915050565b7f4e487b7100000000000000000000000000000000000000000000000000000000600052601160045260246000fd5b6000610cc282610b69565b9150610ccd83610b69565b9250817fffffffffffffffffffffffffffffffffffffffffffffffffffffffffffffffff0483118215151615610d0657610d05610c88565b5b828202905092915050565b6000610d1c82610b69565b9150610d2783610b69565b925082821015610d3a57610d39610c88565b5b82820390509291505056fea26469706673582212203137941d0d87ef6f03d6c2ece8a5ba17041de0974fdb9d56244619ffd362976664736f6c63430008090033",
  "devdoc": {
    "kind": "dev",
    "methods": {},
    "version": 1
  },
  "userdoc": {
    "errors": {
      "InvalidCollateral()": [
        {
          "notice": "The transferred escrow value does not match the price"
        }
      ],
      "InvalidState()": [
        {
          "notice": "The function cannot be called at the current state."
        }
      ],
      "OnlyBuyer()": [
        {
          "notice": "Custom errors were added in Solidity v0.8.4 Only the buyer can call this function."
        }
      ],
      "OnlySeller()": [
        {
          "notice": "Only the seller can call this function."
        }
      ]
    },
    "kind": "user",
    "methods": {
      "confirmReceived()": {
        "notice": "Step 4a: The buyer confirms that he/she has received the product. In this case he/she receives the collateral back that has been paid on top of the price. Contract goes into State.Settled"
      },
      "constructor": {
        "notice": "Step 1: The seller constructs the Escrow contract Contract starts in State.Inactive."
      },
      "pay()": {
        "notice": "Step 3b: A buyer pays the priced product and secures the transaction by sending price * collateralFactor to the contract. Contract stores the buyer and goes into State.Paid."
      },
      "payout()": {
        "notice": "Step 3a and 5: After the buyer has confirmed reception of the product the seller can take out the remaining funds in the escrow which is his compound (2*price) + the payment of the buyer (1*price) Contract goes into State.Inactive"
      },
      "refund()": {
        "notice": "Step 4b: If the product is not received by the buyer the seller can refund him. The buyer receives the 2*price he has paid to the escrow contract back. Contract goes back into State.Priced"
      },
      "setPrice(uint256)": {
        "notice": "Step 2: The seller sets the product price and sends twice the product's price as escrow. Contract goes into in State.Priced."
      }
    },
    "version": 1
  },
  "storageLayout": {
    "storage": [
      {
        "astId": 3,
        "contract": "contracts/Escrow.sol:Escrow",
        "label": "price",
        "offset": 0,
        "slot": "0",
        "type": "t_uint256"
      },
      {
        "astId": 5,
        "contract": "contracts/Escrow.sol:Escrow",
        "label": "seller",
        "offset": 0,
        "slot": "1",
        "type": "t_address_payable"
      },
      {
        "astId": 7,
        "contract": "contracts/Escrow.sol:Escrow",
        "label": "buyer",
        "offset": 0,
        "slot": "2",
        "type": "t_address_payable"
      },
      {
        "astId": 18,
        "contract": "contracts/Escrow.sol:Escrow",
        "label": "state",
        "offset": 20,
        "slot": "2",
        "type": "t_enum(State)15"
      }
    ],
    "types": {
      "t_address_payable": {
        "encoding": "inplace",
        "label": "address payable",
        "numberOfBytes": "20"
      },
      "t_enum(State)15": {
        "encoding": "inplace",
        "label": "enum Escrow.State",
        "numberOfBytes": "1"
      },
      "t_uint256": {
        "encoding": "inplace",
        "label": "uint256",
        "numberOfBytes": "32"
      }
    }
  }
}